:100000000C9463000C948B000C948B000C948B006C
:100010000C948B000C948B000C948B000C948B0034
:100020000C948B000C948B000C948B000C94870622
:100030000C948B000C948B000C948B000C948B0014
:100040000C943D060C948B000C948B000C948B004C
:100050000C948B000C948B000C948B000C948B00F4
:100060000C948B000C948B000000000024002700EF
:100070002A0000000000250028002B0000000000DE
:1000800023002600290004040404040404040202DA
:100090000202020203030303030301020408102007
:1000A0004080010204081020010204081020000012
:1000B0000008000201000003040700000000000027
:1000C00000004709000A11241FBECFEFD8E0DEBFB1
:1000D000CDBF11E0A0E0B1E0EAE8F9E102C005908F
:1000E0000D92A23EB107D9F722E0A2EEB1E001C025
:1000F0001D92AC3AB207E1F710E0C2E6D0E004C0CE
:100100002197FE010E94B70AC136D107C9F70E94A4
:1001100043070C94B80C0C940000CF92DF92EF923E
:10012000FF92DC01A03282E0B807D4F5A53BB1050F
:1001300014F0A4EBB0E040918E0228E830E0241BDC
:10014000310947FD3395220F331F220F331F6901F9
:10015000330FEE08FF0840918F0228E532E0241BA0
:10016000310947FD3395220F331F220F331F032E12
:10017000000C440B550B2C193D094E095F09B7FFC4
:1001800002C0B0E0A0E00E943B0A24EB30E040E077
:1001900050E00E94110AC20ED31EE41EF51ED601C5
:1001A000E0918D02EC3080F520918E0288E890E09D
:1001B000821B910927FD9395880F991F880F991F1E
:1001C000A817B90784F020918F0288E592E0821B7E
:1001D000910927FD9395880F991F880F991FA817DC
:1001E000B9070CF4CD010297880F991F4FB7F89407
:1001F0002E2F30E0F901EE0FFF1FE20FF31FE7593A
:10020000FD4F928381834FBFFF90EF90DF90CF909F
:10021000089596E0899FD0011124AC50BE4F90966E
:100220007C936E935F9791E091969C939197E09168
:100230006102F091620290916002992339F0309747
:1002400051F0811108C0809110020994309719F083
:100250005C968C91FACF0895CF92DF92EF92FF9245
:100260000F931F9396E0899FF0011124EC50FE4FED
:1002700011A2278D30A12130310551F178F02230C3
:10028000310509F451C02330310509F452C01F91E2
:100290000F91FF90EF90DF90CF9008956623B9F310
:1002A00061E070E00E9409012FB7F8948091F0019D
:1002B0009091F101A091F201B091F3012FBF8093D1
:1002C0004C0290934D02A0934E02B0934F02DFCFA9
:1002D0009FB7F894C090F001D090F101E090F20146
:1002E000F090F3019FBF00914C0210914D022091BC
:1002F0004E0230914F02C01AD10AE20AF30A00916D
:100300005E0210915F0230E020E00C151D052E0505
:100310003F0550F462E070E01F910F91FF90EF9065
:10032000DF90CF900C9409016111B1CF63E070E0D0
:10033000F3CF70E060E0F0CF833081F028F48130BB
:1003400099F08230A9F008958730A9F08830C9F07B
:100350008430B1F4809180008F7D03C08091800053
:100360008F7780938000089584B58F7784BD08953A
:1003700084B58F7DFBCF8091B0008F778093B000E4
:1003800008958091B0008F7DF9CFCF93DF93282F10
:1003900030E0F901E255FF4F8491F901E656FF4F35
:1003A000D491F901EA57FF4FC491CC23A1F08111F8
:1003B0000E949C01EC2FF0E0EE0FFF1FE458FF4F6E
:1003C000A591B491EC91ED2381E090E009F480E0F7
:1003D000DF91CF91089580E090E0FACF862F0C94C2
:1003E000C5011F93CF93DF93282F30E0F901E25529
:1003F000FF4F8491F901E656FF4FD491F901EA5776
:10040000FF4FC491CC23A9F0162F81110E949C01AB
:10041000EC2FF0E0EE0FFF1FEE58FF4FA591B491C7
:100420008FB7F894EC91111108C0D095DE23DC93BE
:100430008FBFDF91CF911F910895DE2BF8CF862FCC
:10044000642F0C94F101CF93DF9390E0FC01E6560A
:10045000FF4F24918A579F4FFC0184918823C9F054
:1004600090E0880F991FFC01E859FF4FA591B491C6
:10047000FC01EE58FF4FC591D49161110DC09FB79B
:10048000F8948C91209582238C938881282328834B
:100490009FBFDF91CF910895623051F49FB7F894D8
:1004A0003C91822F809583238C93E8812E2BEFCF74
:1004B0008FB7F894EC912E2B2C938FBFEACF862F19
:1004C000642F0C9423026F927F928F929F92AF922F
:1004D000BF92CF92DF92EF92FF920F931F93CF9331
:1004E000DF9381E0809360028FB7F8944091F00130
:1004F0005091F1016091F2017091F3018FBF8091F1
:10050000500290915102A0915202B0915302481BA7
:10051000590B6A0B7B0B80915C0290915D02B0E0FD
:10052000A0E084179507A607B70708F01DC1C0E033
:1005300080915A02C81760F4E0915602F091570278
:10054000EC0FF11D62E080810E942302CF5FF0CFAB
:10055000712C812C912C5401839480915B0278162C
:1005600008F05FC0072D10E0E0915802F0915902A9
:10057000E00FF11F61E080810E942302E0915802A8
:10058000F0915902E00FF11F60E080810E94F101BB
:10059000D501C401072C04C0880F991FAA1FBB1FD7
:1005A0000A94D2F76C017C01E094F094612C809164
:1005B0005A026816F8F4C62DD0E0E0915602F09188
:1005C0005702EC0FFD1F80810E94C5012496CC0FBD
:1005D000DD1FCC50DE4F892B41F4888199818C2915
:1005E0009D29998388836394E2CF888199818E21A4
:1005F0009F21F7CFE0915802F0915902E00FF11FCF
:1006000061E080810E94F10180915802909159022D
:10061000080F191F60E0F80180810E942302739483
:100620009CCFC4EFD1E0FE018FEF9FEF278D30A16B
:10063000232B21F4148E968F858F11A2369622E0FB
:10064000E033F20799F7F12C96E0D92E80915A0207
:10065000F81608F050C0E12C0F2D10E0000F111F0C
:1006600004501E4F20915B02E21608F042C0F801D0
:10067000608171810E2C02C0769567950A94E2F72D
:10068000F29E900111242E0D311DE4EFF1E080E087
:10069000458D568D2417350709F46AC08F5F36964D
:1006A0008A30B1F760FF23C0E4EFF1E090E080E032
:1006B000448D411117C0E0915402F0915502E20FB0
:1006C000F31F4081D89EF001D99EF00D1124EC500B
:1006D000FE4F448F368F258F10A2178E61E00E9447
:1006E0002C0105C0019636968A30910509F7E394EE
:1006F000B9CFF394ABCF80E099A19111892F2696C1
:10070000F2E0C033DF07C1F79FB7F8944091F001E2
:100710005091F1016091F2017091F3019FBF4093FC
:1007200050025093510260935202709353028823F7
:10073000D9F0809115028823B9F08091130290912D
:100740001402019789F480911002DF91CF911F91DB
:100750000F91FF90EF90DF90CF90BF90AF909F9060
:100760008F907F906F9008951092600280E0EDCF9F
:100770006170B5CF3FB7F8948091EC019091ED0195
:10078000A091EE01B091EF0126B5A89B05C02F3FC7
:1007900019F00196A11DB11D3FBFBA2FA92F982FA7
:1007A0008827BC01CD01620F711D811D911D42E0A2
:1007B000660F771F881F991F4A95D1F708958F926A
:1007C0009F92AF92BF92CF92DF92EF92FF924B0136
:1007D0005C010E94BA036B017C010E94BA036C1990
:1007E0007D098E099F09683E734081059105A8F334
:1007F00021E0821A9108A108B10888EEC80E83E0B2
:10080000D81EE11CF11C81149104A104B10429F744
:10081000FF90EF90DF90CF90BF90AF909F908F9020
:100820000895AF92BF92CF92DF92EF92FF920F9313
:100830001F93CF93DF936C017B018B01040F151F76
:10084000EB015E01AE18BF08C017D10759F06991DE
:10085000D601ED91FC910190F081E02DC601099542
:10086000892B79F7C501DF91CF911F910F91FF90EF
:10087000EF90DF90CF90BF90AF900895089590E0F3
:1008800080E00895FC0101900020E9F73197AF0165
:10089000481B590BBC0180E992E00C941104CF93E2
:1008A000DF93EC0160E08E810E94F10161E08E81B6
:1008B0000E94F10160E08E810E94F1018BE891E0DD
:1008C0000197F1F7DF91CF910895CF92DF92EF92E8
:1008D000FF920F931F93CF93DF936C017C0187E00E
:1008E000E80EF11CD0E0C0E0062F10E0B8010C2E9D
:1008F00002C0759567950A94E2F76170F7018191DE
:100900007F010E94F1012196C430D10579F7C6011B
:10091000DF91CF911F910F91FF90EF90DF90CF90DB
:100920000C944F04CF92DF92EF92FF920F931F939C
:10093000CF93DF93EC01F62E642F8C810E94F1019E
:100940008D818F3F19F060E00E94F1010F2D10E0C2
:100950008F8584FF25C06E0187E0C80ED11CF12C65
:10096000E12CB8010E2C02C0759567950A94E2F748
:100970006170F60181916F010E94F101FFEFEF1AA2
:10098000FF0A88E0E816F10461F7CE01DF91CF910C
:100990001F910F91FF90EF90DF90CF900C944F0438
:1009A000B80184E0759567958A95E1F7CE010E94BC
:1009B00065046F2DCE01DF91CF911F910F91FF90B4
:1009C000EF90DF90CF900C94650440E0682F80E9B1
:1009D00092E00C94920481E00E94E5048BE39FE195
:1009E0000197F1F70895CF93DF93823029F4909126
:1009F0009F02986090939F028093A3021092A4029A
:100A000080E48093A50280E18093A60280E5809334
:100A1000A70261E0809194020E94230280919502D6
:100A20008F3F19F061E00E94230261E080919602FD
:100A30000E942302C0E9D2E09E01205932408091F9
:100A40009F0284FD0BC084E090E0219628173907AF
:100A500044F461E08E810E942302EECF88E090E0B2
:100A6000F4CF8BE39DE00197F1F760E08091940271
:100A70000E94F10160E0809196020E94F101809154
:100A800095028F3F19F060E00E94F10180919F0272
:100A900084FD34C063E080E992E00E946504CBE409
:100AA000D6E4CE010197F1F763E080E992E00E947D
:100AB00065042197F1F763E080E992E00E94650404
:100AC00083E592E00197F1F762E080E992E00E940D
:100AD000650480919F0280620E94E50484E0809317
:100AE000A0028CE00E94E5040E94EB0482E0809367
:100AF000A10286E0DF91CF910C94E50480620E9410
:100B0000E5048BE496E40197F1F780919F028062FF
:100B10000E94E50483E592E00197F1F780919F023E
:100B200080620E94E504D5CFE091A302E23040F458
:100B3000E150F0E0E057FD4F848980680C94E504B3
:100B4000E1E0F7CF41E00E94920481E090E0089557
:100B5000FC0124813581FB0144815581241735072F
:100B6000E1F4FC0180819181FB016081718100973A
:100B7000D1F061157105A1F4232BC1F0FC01808136
:100B800090E008C0232B91F0FB01808190E09195CB
:100B90008195910921E0892B09F020E0822F0895A9
:100BA0000E94A80CF7CF6115710561F721E0F6CF1F
:100BB0000F931F93CF93DF93EC0188819981009766
:100BC00059F02A813B812617370730F081E0DF9109
:100BD000CF911F910F9108958B016F5F7F4F0E94FE
:100BE000E20B009759F0998388831B830A832C8139
:100BF0003D81232B59F7FC011082E8CF80E0E7CF3D
:100C0000EF92FF920F931F93CF93DF93EC017B0141
:100C10008A01BA010E94D80528813981811114C046
:100C20002115310519F0C9010E94590B198218824A
:100C30001D821C821B821A82CE01DF91CF911F91EF
:100C40000F91FF90EF9008951D830C83B701C901A8
:100C50000E94B10CF1CF50E040E06BED71E083E613
:100C600092E00C9400061092EA010E942B060E946A
:100C7000EB048FE291E00C9442041F920F920FB6A6
:100C80000F9211242F933F938F939F93AF93BF9312
:100C90008091F0019091F101A091F201B091F301E6
:100CA0003091EB0123E0230F2D3758F50196A11D5C
:100CB000B11D2093EB018093F0019093F101A0937B
:100CC000F201B093F3018091EC019091ED01A091BC
:100CD000EE01B091EF010196A11DB11D8093EC01D1
:100CE0009093ED01A093EE01B093EF01BF91AF910E
:100CF0009F918F913F912F910F900FBE0F901F905A
:100D0000189526E8230F0296A11DB11DD2CF1F9280
:100D10000F920FB60F9211242F933F934F935F932F
:100D20006F937F938F939F93AF93BF93CF93DF93F3
:100D3000EF93FF938091E301C091E201D0E087FF40
:100D400024C010928500109284008091E3018F5F8F
:100D50008093E3018091E301082E000C990B8C171E
:100D60009D0724F48091E3018C30C4F180918400CC
:100D700090918500049680349C4908F47AC0809153
:100D8000840090918500049676C08091E301082E3E
:100D9000000C990B8C179D07C4F6E091E3018E2F90
:100DA000EE0F990BFC01EE0FFF1FE80FF91FE7593B
:100DB000FD4F808186FFC9CFE091E3018E2FEE0FBA
:100DC000990BFC01EE0FFF1FE80FF91FE759FD4FCC
:100DD000808160E08F730E94F101B7CF2091840081
:100DE00030918500E091E3018E2FEE0F990BFC010D
:100DF000EE0FFF1FE80FF91FE759FD4F8181928128
:100E0000820F931F9093890080938800E091E30103
:100E10008E2FEE0F990BFC01EE0FFF1FE80FF91F4D
:100E2000E759FD4F808186FF11C0E091E3018E2FCD
:100E3000EE0F990BFC01EE0FFF1FE80FF91FE759AA
:100E4000FD4F808161E08F730E94F101FF91EF916E
:100E5000DF91CF91BF91AF919F918F917F916F91D2
:100E60005F914F913F912F910F900FBE0F901F9068
:100E7000189580E49CE990938900809388008FEF17
:100E80008093E301E3CFCF93DF9300D0CDB7DEB7FC
:100E9000789484B5826084BD84B5816084BD85B555
:100EA000826085BD85B5816085BD80916E00816061
:100EB00080936E0010928100809181008260809307
:100EC0008100809181008160809381008091800009
:100ED0008160809380008091B10084608093B10034
:100EE0008091B00081608093B00080917A0084602E
:100EF00080937A0080917A00826080937A0080915A
:100F00007A00816080937A0080917A008068809373
:100F10007A001092C10082E00E94F3048FE291E017
:100F20000E94420480918D028C3008F051C061E033
:100F30008DE00E94230280918D02282F30E0F9017C
:100F4000EE0FFF1FE20FF31FE759FD4F9081907CDA
:100F50009D60908310928E0210928F022CE0622F7F
:100F60000E94AB0A829FB001112430E020E0AB0167
:100F7000420F531FFA01EE0FFF1FE40FF51FE75951
:100F8000FD4F908196FD16C02F5F3F4F2C303105ED
:100F900071F781110FC01092800082E08093810070
:100FA0001092850010928400B19A80916F00826047
:100FB00080936F00E0918D028E2F90E0FC01EE0F88
:100FC000FF1FE80FF91FE759FD4F80818064808380
:100FD00090E080E00E948D0080E0E82E80E0F82E16
:100FE000DD24D3940E946302882309F4C9C0909140
:100FF000EA01992309F4CBC0813309F0BEC00E94F5
:10100000EB048FE391E00E9442040E942B060E94B1
:1010100063028823E1F3833209F067C063E672E07C
:1010200084EE91E00E94A805882379F00E94EB04E9
:101030008DE491E00E9442040E94EB0468EE73E0AC
:1010400080E090E00E94DF03DCCF80916702909106
:1010500068020497E9F564EE71E083E692E00E948D
:10106000A805811135C06091630270916402611519
:101070007105C9F044E050E084EE91E00E94000662
:101080000E94EB048CE591E00E94420460ED77E061
:1010900080E090E00E94DF030E94330690E080E051
:1010A0000E948D006DC08091E4019091E501009750
:1010B00011F00E94590B1092E5011092E401109278
:1010C000E9011092E8011092E7011092E601D8CFF1
:1010D0000E94EB048BE691E00E94420460ED77E011
:1010E00080E090E00E94DF038ACF8A32A9F40E9458
:1010F0002B060E9494058AE791E00E94420460ED6D
:1011000077E080E090E00E94DF030E94EB048FE232
:1011100091E00E9442047BCF89831A82009167028A
:10112000109168020F5F1F4FB80183E692E00E94A2
:10113000D805882399F02091630230916402809150
:10114000670290916802BE016F5F7F4F820F931F0D
:101150000E94B10C10936802009367020E949405EC
:10116000409167025091680260916302709164023D
:1011700080E992E00E9411044ACF823309F48CCFB7
:10118000E114F10409F42ECF0E9400002BCF83322A
:10119000E1F564EE71E083E692E00E94A805882301
:1011A000F9F0D092EA010E94EB048CE891E00E94F1
:1011B00042048AE590E00E948D0060ED77E080E0D7
:1011C00090E00E94DF030E94EB048BE991E00E9413
:1011D00042040E9494058AEA91E00E944204D0CF22
:1011E0000E94EB048CEB91E00E94420460ED77E0FA
:1011F00080E090E00E94DF030E94EB048FE291E028
:101200000E9442040E942B06BBCF8A3279F40E94CE
:101210002B060E9494050E94EB048AEC91E00E9448
:1012200042040E94EB048FE291E0D7CF89831A82B7
:1012300000916702109168020F5F1F4FB80183E6AB
:1012400092E00E94D805882399F0209163023091A2
:1012500064028091670290916802BE016F5F7F4FC8
:10126000820F931F0E94B10C1093680200936702D3
:101270000E94940540916702509168026091630258
:101280007091640280E992E00E94110479CF10927B
:1012900093021092920287E291E0909391028093E0
:1012A00090028CE0809394028FEF809395028BE004
:1012B000809396028AE0809397028EE08093980252
:1012C0008FE08093990280E180939A0210929B02B2
:1012D00010929C0210929D0210929E0210929F0208
:1012E00081E00E94F3041092F6011092FA0110922C
:1012F000F9011092FB018DE191E09093F50180934B
:10130000F401E0E1F2E01082148213821582369635
:1013100082E0EC34F807B9F783E091E0909357024C
:101320008093560280E091E0909359028093580296
:1013300084E080935A0283E080935B0287E091E02F
:1013400090935502809354028AE090E090935D025E
:1013500080935C0284EF91E090935F0280935E0241
:101360001092620210926102109250021092510289
:101370001092520210925302109260028091E20188
:101380008C30D0F591E0980F9093E20180938D021C
:1013900090E0FC01EE0FFF1FE80FF91FE759FD4F2A
:1013A00088EB9BE0928381831092E5011092E40127
:1013B0001092E7011092E6011092E9011092E80103
:1013C00044E050E06CED71E084EE91E00E94000694
:1013D00010926402109263021092660210926502EB
:1013E000109268021092670250E040E06BED71E0ED
:1013F00083E692E00C9400068FEF80938D02D4CFA9
:101400008091630290916402009711F00E94590B41
:101410008091E4019091E501009711F00C94590B33
:101420000895052E97FB1EF400940E94280A57FD8C
:1014300007D00E947A0A07FC03D04EF40C94280AC5
:1014400050954095309521953F4F4F4F5F4F0895F0
:1014500090958095709561957F4F8F4F9F4F089520
:101460000E949C0AA59F900DB49F900DA49F800D93
:10147000911D11240895B7FF0C94300A0E94300A80
:10148000821B930B08952F923F924F925F926F921F
:101490007F928F929F92AF92BF92CF92DF92EF9204
:1014A000FF920F931F93CF93DF93CDB7DEB7CA1B85
:1014B000DB0B0FB6F894DEBF0FBECDBF09942A88B0
:1014C000398848885F846E847D848C849B84AA8458
:1014D000B984C884DF80EE80FD800C811B81AA81E5
:1014E000B981CE0FD11D0FB6F894DEBF0FBECDBFB0
:1014F000ED010895A1E21A2EAA1BBB1BFD010DC030
:10150000AA1FBB1FEE1FFF1FA217B307E407F507B3
:1015100020F0A21BB30BE40BF50B661F771F881F8F
:10152000991F1A9469F760957095809590959B0125
:10153000AC01BD01CF010895A29FB001B39FC001CE
:10154000A39F700D811D1124911DB29F700D811DEF
:101550001124911D0895991B79E004C0991F9617D5
:1015600008F0961B881F7A95C9F780950895EE0FAD
:10157000FF1F0590F491E02D09940F931F93CF93D3
:10158000DF938230910510F482E090E0E091AA02AE
:10159000F091AB0230E020E0B0E0A0E0309799F4A9
:1015A0002115310509F44AC0281B390B24303105B7
:1015B000D8F58A819B816115710589F1FB019383BF
:1015C0008283FE0111C0408151810281138148173D
:1015D0005907E0F04817590799F4109761F01296EF
:1015E0000C93129713961C933296CF01DF91CF91F3
:1015F0001F910F9108950093AA021093AB02F4CFAC
:101600002115310551F04217530738F0A901DB01CC
:101610009A01BD01DF01F801C1CFEF01F9CF90932D
:10162000AB028093AA02CDCFFE01E20FF31F81939C
:1016300091932250310939832883D7CF2091A80272
:101640003091A902232B41F420911501309116010C
:101650003093A9022093A802209113013091140124
:101660002115310541F42DB73EB740911701509136
:101670001801241B350BE091A802F091A902E21792
:10168000F307A0F42E1B3F0B2817390778F0AC01A5
:101690004E5F5F4F2417350748F04E0F5F1F509382
:1016A000A9024093A802819391939FCFF0E0E0E0DC
:1016B0009CCFCF93DF930097E9F0FC013297138220
:1016C0001282A091AA02B091AB02ED0130E020E0BD
:1016D0001097A1F420813181820F931F2091A802DD
:1016E0003091A9022817390709F061C0F093A902C7
:1016F000E093A802DF91CF910895EA01CE17DF07AA
:10170000E8F54A815B819E0141155105B1F7E90178
:10171000FB83EA8349915991C40FD51FEC17FD074C
:1017200061F4808191810296840F951FE90199836C
:101730008883828193819B838A83F0E0E0E0129624
:101740008D919C9113970097B9F52D913C9111972C
:10175000CD010296820F931F2091A8023091A90219
:101760002817390739F6309751F51092AB021092CD
:10177000AA02B093A902A093A802BCCFD383C283CC
:1017800040815181840F951FC817D90761F44E5FBE
:101790005F4F88819981480F591F518340838A8107
:1017A0009B81938382832115310509F0B0CFF0939B
:1017B000AB02E093AA029ECFFD01DC01C0CF1382F1
:1017C0001282D7CFB0E0A0E0E8EEFBE00C94450A2F
:1017D0008C01009751F4CB010E94BD0A8C01C80115
:1017E000CDB7DEB7E0E10C94610AFC01E60FF71F0C
:1017F0009C0122503109E217F30708F49DC0D9017A
:10180000CD91DC911197C617D70798F0C530D10557
:1018100030F3CE0104978617970708F3C61BD70B42
:101820002297C193D1936D937C93CF010E94590B62
:10183000D6CF5B01AC1ABD0A4C018C0E9D1EA09147
:10184000AA02B091AB02512C412CF12CE12C109743
:1018500031F58091A8029091A9028815990509F0A7
:101860005CC04616570608F058C08091130190914D
:101870001401009741F48DB79EB740911701509124
:101880001801841B950BE817F90708F055C0F09371
:10189000A902E093A802F90171836083A0CF8D9122
:1018A0009C91119712966C90129713967C901397B7
:1018B000A815B90559F56C0142E0C40ED11CCA1433
:1018C000DB0420F1AC014A195B09DA011296159785
:1018D00080F06282738251834083D9016D937C933F
:1018E000E114F10471F0D7011396FC93EE93129773
:1018F00076CF22968C0F9D1FF90191838083F3018F
:10190000EFCFF093AB02E093AA0269CF48165906D5
:1019100008F42C017D01D3019ACFCB010E94BD0AAE
:101920007C01009749F0AE01B8010E949F0CC801EC
:101930000E94590B870153CF10E000E050CFFB010C
:10194000DC0102C001900D9241505040D8F708953B
:10195000FB01DC018D91019080190110D9F3990BE5
:101960000895FB01DC0101900D920020E1F708953C
:1019700010E0C2E6D0E004C0FE010E94B70A219642
:0A198000C336D107C9F7F894FFCF72
:10198A000504030908070631323334353637383946
:10199A002A30230000AC028000000000005F021F12
:1019AA0002EE0100000000A20511043F043E0445B6
:1019BA006E7465722050617373776F72643A004E69
:1019CA0065772050617373776F72643A0053616D63
:1019DA00652050617373776F72642100506173736D
:1019EA00776F726420536176656400342064696796
:1019FA00697473206F6E6C79210070617373776FED
:101A0A00726420636C65617265642E00416363656C
:101A1A007373204772616E74656400313A204368BB
:101A2A00616E6765205061737300323A20457869A8
:101A3A00742020202020202020202000416363657C
:101A4A0073732044656E69656400436C65617265F1
:101A5A006420202020202020202020003030303018
:021A6A0000007A
:00000001FF
